:100000000C945D000C9485000C9485000C94850084
:100010000C9485000C9485000C9485000C9485004C
:100020000C9485000C9485000C9485000C9485003C
:100030000C9485000C9485000C9485000C9485002C
:100040000C94CE060C9485000C949C060C947606B9
:100050000C9485000C9485000C9485000C9485000C
:100060000C9485000C94850000000008000201003B
:100070000003040700000000000000000000000072
:10008000250028002B0000000000240027002A0083
:10009000040404040404040402020202020203032E
:1000A0000303030301020408102040800102040836
:1000B0001020010204081020260E11241FBECFEFCD
:1000C000D8E0DEBFCDBF13E0A0E0B1E0E2E4F2E2B1
:1000D00002C005900D92A834B107D9F724E0A8E436
:1000E000B3E001C01D92AF31B207E1F710E0CDE5FA
:1000F000D0E004C02197FE010E94F210CC35D10758
:10010000C9F70E9418070C941F110C94000090E08E
:10011000FC01EC55FF4F249180579F4FFC018491C7
:10012000882399F090E0880F991FFC01EA57FF4F50
:10013000A591B491FC01E458FF4F859194918FB73C
:10014000F894EC91E22BEC938FBF089580E490E05B
:10015000089507960895AF92BF92CF92DF92EF92E3
:10016000FF920F931F93CF93DF936C017B018B0161
:10017000040F151FEB015E01AE18BF08C017D107B1
:1001800059F06991D601ED91FC910190F081E02D3B
:10019000C6010995892B79F7C501DF91CF911F9190
:1001A0000F91FF90EF90DF90CF90BF90AF900895A8
:1001B000FC01538D448D252F30E0842F90E0821B6D
:1001C000930B541710F0CF96089501970895FC01F2
:1001D000918D828D981761F0A28DAE0FBF2FB11D4A
:1001E0005D968C91928D9F5F9F73928F90E00895A2
:1001F0008FEF9FEF0895FC01918D828D981731F05C
:10020000828DE80FF11D858D90E008958FEF9FEFAF
:100210000895FC01918D228D892F90E0805C9F4F85
:10022000821B91098F739927089582E893E00E94B9
:10023000090121E0892B09F420E0822F089580E054
:1002400090E0892B29F00E94150181110C94000087
:100250000895FC01A48DA80FB92FB11DA35ABF4F5B
:100260002C91848D90E001968F739927848FA689B5
:10027000B7892C93A089B1898C91837080648C9309
:10028000938D848D981306C00288F389E02D8081B8
:100290008F7D80830895EF92FF920F931F93CF93EA
:1002A000DF93EC0181E0888F9B8D8C8D98131AC0B1
:1002B000E889F989808185FF15C09FB7F894EE8998
:1002C000FF896083E889F9898081837080648083F5
:1002D0009FBF81E090E0DF91CF911F910F91FF9040
:1002E000EF900895F62E0B8D10E00F5F1F4F0F73E8
:1002F0001127E02E8C8D8E110CC00FB607FCFACFA3
:10030000E889F989808185FFF5CFCE010E94290116
:10031000F1CFEB8DEC0FFD2FF11DE35AFF4FF08273
:100320009FB7F8940B8FEA89FB8980818062CFCFD9
:10033000CF93DF93EC01888D8823B9F0AA89BB891C
:10034000E889F9898C9185FD03C0808186FD0DC007
:100350000FB607FCF7CF8C9185FFF2CF808185FF28
:10036000EDCFCE010E942901E9CFDF91CF91089511
:1003700090E0FC01E859FF4F2491FC01EC55FF4F40
:100380003491FC01E057FF4FE491EE23C9F02223A2
:1003900039F0233001F1A8F4213019F1223029F18C
:1003A000F0E0EE0FFF1FE458FF4FA591B4918FB717
:1003B000F894EC91611126C030953E233C938FBF99
:1003C00008952730A9F02830C9F0243049F78091EA
:1003D00080008F7D03C0809180008F7780938000A4
:1003E000DFCF84B58F7784BDDBCF84B58F7DFBCF26
:1003F0008091B0008F778093B000D2CF8091B00011
:100400008F7DF9CF3E2BDACF8230910538F0880FFF
:10041000991F880F991F05970197F1F708953FB726
:10042000F89480914D0390914E03A0914F03B091A9
:10043000500326B5A89B05C02F3F19F00196A11DBA
:10044000B11D3FBFBA2FA92F982F8827BC01CD011E
:10045000620F711D811D911D42E0660F771F881F7D
:10046000991F4A95D1F708958F929F92AF92BF92AC
:10047000CF92DF92EF92FF924B015C010E940F023C
:100480006B017C010E940F026C197D098E099F0986
:10049000683E734081059105A8F321E0821A910816
:1004A000A108B10888EEC80E83E0D81EE11CF11C3B
:1004B00081149104A104B10429F7FF90EF90DF901B
:1004C000CF90BF90AF909F908F900895CF93DC0115
:1004D00017968D919C9118978617970760F115963E
:1004E0008D919C91169750E040E030E020E0841719
:1004F000950709F14115510591F01396ED91FC9185
:100500001497E40FF51FC081C1111AC03197E08123
:10051000EE2311F02F5F3F4F4F5F5F4FE8CF621721
:100520007307D1F71396ED91FC9114972081211157
:1005300004C09B01F1CFF0E0E0E0CF01CF9108953E
:100540006217730749F7F9CF4F925F926F927F92CC
:100550008F929F92AF92BF92CF92DF92EF92FF92D3
:100560002B013C01CA01B90120E030E048E453E42A
:100570000E9443109B01AC0160E070E080E792E4D0
:100580000E94EB0E20E034E244E759E40E9443105D
:1005900020E030E040E05FE30E94431020E030E0E4
:1005A00040EA50E40E94790E0E945D0F6B0120E04A
:1005B00030E0A901C301B2010E943E1018162CF5CB
:1005C00061E08DE00E94B801812C912C5401C5019D
:1005D000B4010E948C0FA30192010E94E60E87FFD6
:1005E0003DC061E08CE00E94B801C6010E94040297
:1005F00060E08CE00E94B801C6010E9404028FEF07
:10060000881A980AA80AB80AE2CF60E08DE00E9432
:10061000B80177FA709477F87094812C912C54017A
:10062000C501B4010E948C0FA30192010E94E60E45
:1006300087FF14C061E08CE00E94B801C6010E94EF
:10064000040260E08CE00E94B801C6010E9404022E
:100650008FEF881A980AA80AB80AE2CFFF90EF90A5
:10066000DF90CF90BF90AF909F908F907F906F90D2
:100670005F904F9008954F925F926F927F928F920A
:100680009F92AF92BF92CF92DF92EF92FF922B0197
:100690003C01CA01B90120E030E048E453E40E9483
:1006A00043109B01AC0160E070E080E792E40E949F
:1006B000EB0E20E034E244E759E40E94431020E0CE
:1006C00030E040E05FE30E94431020E030E040EA89
:1006D00050E40E94790E0E945D0F6B0120E030E033
:1006E000A901C301B2010E943E1018162CF561E069
:1006F00087E00E94B801812C912C5401C501B401FE
:100700000E948C0FA30192010E94E60E87FF3DC05C
:1007100061E084E00E94B801C6010E94040260E02A
:1007200084E00E94B801C6010E9404028FEF881A7B
:10073000980AA80AB80AE2CF60E087E00E94B801F0
:1007400077FA709477F87094812C912C5401C5013C
:10075000B4010E948C0FA30192010E94E60E87FF54
:1007600014C061E084E00E94B801C6010E94040246
:1007700060E084E00E94B801C6010E9404028FEF8D
:10078000881A980AA80AB80AE2CFFF90EF90DF9083
:10079000CF90BF90AF909F908F907F906F905F9021
:1007A0004F9008954F925F926F927F928F929F9297
:1007B000AF92BF92CF92DF92EF92FF922B013C015A
:1007C000CA01B90120E030E048E453E40E9443103C
:1007D0009B01AC0160E070E080E792E40E94EB0EC8
:1007E00020E034E244E759E40E94431020E030E086
:1007F00040E05FE30E94431020E030E040EA50E434
:100800000E94790E0E945D0F6B0120E030E0A9018B
:10081000C301B2010E943E1018162CF561E086E07B
:100820000E94B801812C912C5401C501B4010E9491
:100830008C0FA30192010E94E60E87FF3DC061E08C
:1008400083E00E94B801C6010E94040260E083E0D8
:100850000E94B801C6010E9404028FEF881A980A0C
:10086000A80AB80AE2CF60E086E00E94B80177FAF1
:10087000709477F87094812C912C5401C501B401C7
:100880000E948C0FA30192010E94E60E87FF14C004
:1008900061E083E00E94B801C6010E94040260E0AA
:1008A00083E00E94B801C6010E9404028FEF881AFB
:1008B000980AA80AB80AE2CFFF90EF90DF90CF9095
:1008C000BF90AF909F908F907F906F905F904F9070
:1008D00008954F925F926F927F928F929F92AF9204
:1008E000BF92CF92DF92EF92FF922B013C01CA019F
:1008F000B90120E030E048E453E40E9443109B013A
:10090000AC0160E070E080E792E40E94EB0E20E032
:1009100034E244E759E40E94431020E030E040E034
:100920005FE30E94431020E030E040EA50E40E9480
:10093000790E0E945D0F6B0120E030E0A901C30138
:10094000B2010E943E1018162CF561E085E00E946D
:10095000B801812C912C5401C501B4010E948C0F67
:10096000A30192010E94E60E87FF3DC061E082E094
:100970000E94B801C6010E94040260E082E00E9469
:10098000B801C6010E9404028FEF881A980AA80ACB
:10099000B80AE2CF60E085E00E94B80177FA70946F
:1009A00077F87094812C912C5401C501B4010E94F8
:1009B0008C0FA30192010E94E60E87FF14C061E034
:1009C00082E00E94B801C6010E94040260E082E059
:1009D0000E94B801C6010E9404028FEF881A980A8B
:1009E000A80AB80AE2CFFF90EF90DF90CF90BF90B7
:1009F000AF909F908F907F906F905F904F900895F1
:100A0000CF93DF93EB0170E060E00E946602BE01CD
:100A10000E940C1121E0892B09F020E0822FDF9148
:100A2000CF910895FC0101900020E9F73197AF01C3
:100A3000481B590BBC0182E893E00C94AB008F92E9
:100A40009F92AF92BF920F931F93CF93DF93CDB737
:100A5000DEB7A1970FB6F894DEBF0FBECDBF19A2C7
:100A6000423008F44AE08E010F5D1F4F842E912C16
:100A7000B12CA12CA50194010E94C510E62FB9014B
:100A8000CA01EA30F4F4E05DD801EE938D01232B26
:100A9000242B252B79F790E080E0109719F0CD01F9
:100AA0000E941205A1960FB6F894DEBF0FBECDBF0F
:100AB000DF91CF911F910F91BF90AF909F908F903A
:100AC0000895E95CE1CFCF93DF93D0E0C0E00097D9
:100AD00019F00E941205EC0181E291E00E941205DA
:100AE0008C0F9D1FDF91CF9108950C9412054F92AA
:100AF0005F926F927F928F929F92AF92BF92CF92AE
:100B0000DF92EF92FF920F931F93CF936B017C01C3
:100B1000742EAC019B010E94B010882399F084E2EE
:100B200091E0CF911F910F91FF90EF90DF90CF90C8
:100B3000BF90AF909F908F907F906F905F904F90FD
:100B40000C94120546015701E894B7F82FEF3FEFD8
:100B50004FE75FE7C501B4010E94B01081110DC0DD
:100B60002FEF3FEF4FE75FE7C501B4010E94E60EAC
:100B700018161CF488E291E0D4CF2FEF3FEF4FE737
:100B80005FE4C701B6010E943E1018161CF48CE207
:100B900091E0C7CF2FEF3FEF4FE75FECC701B60102
:100BA0000E94E60E87FDF3CF20E030E0A901C701E7
:100BB000B6010E94E60E10E000E087FF0AC06DE279
:100BC00082E893E00E944B018C01F7FAF094F7F869
:100BD000F094C0E060E070E080E09FE37C1641F0BC
:100BE00020E030E040E251E40E94EB0ECF5FF6CF10
:100BF000A70196010E947A0E2B013C010E945D0F15
:100C00004B015C014AE00E941F057C01E00EF11ED1
:100C1000CC23C1F1C501B4010E948C0F9B01AC0132
:100C2000C301B2010E94790E4B015C016EE282E8C1
:100C300093E00E944B01E80EF91EC15018F120E02C
:100C400030E040E251E4C501B4010E9443102B01A1
:100C50003C010E945D0F4B01B12CA12C4AE0C50163
:100C6000B4010E941F05E80EF91EC501B4010E94DF
:100C70008C0F9B01AC01C301B2010E94790E4B01A4
:100C80005C01DBCFC701CF911F910F91FF90EF90D7
:100C9000DF90CF90BF90AF909F908F907F906F909C
:100CA0005F904F90089581E10E94870061E081E1AB
:100CB0000E94B80164E670E080E090E00E94340297
:100CC00081E10E94870060E081E10E94B80162E357
:100CD00070E080E090E00C9434020E9407110796C7
:100CE00021E4FC0111922A95E9F708951F920F92D1
:100CF0000FB60F9211242F933F934F935F936F93EF
:100D00007F938F939F93AF93BF93EF93FF9382E86B
:100D100093E00E942901FF91EF91BF91AF919F91C4
:100D20008F917F916F915F914F913F912F910F9094
:100D30000FBE0F901F9018951F920F920FB60F9233
:100D400011242F938F939F93EF93FF93E09192033E
:100D5000F09193038081E0919803F091990382FDD3
:100D60001BC0908180919B038F5F8F7320919C03A8
:100D7000821741F0E0919B03F0E0EE57FC4F958F16
:100D800080939B03FF91EF919F918F912F910F90F3
:100D90000FBE0F901F9018958081F4CF1F920F9275
:100DA0000FB60F9211242F933F938F939F93AF937E
:100DB000BF938091490390914A03A0914B03B09156
:100DC0004C033091480323E0230F2D3758F501964B
:100DD000A11DB11D209348038093490390934A03BA
:100DE000A0934B03B0934C0380914D0390914E031D
:100DF000A0914F03B09150030196A11DB11D8093A6
:100E00004D0390934E03A0934F03B0935003BF91B3
:100E1000AF919F918F913F912F910F900FBE0F90A7
:100E20001F90189526E8230F0296A11DB11DD2CF61
:100E3000CF93DF93CDB7DEB7C955D1090FB6F8947C
:100E4000DEBF0FBECDBF789484B5826084BD84B50B
:100E5000816084BD85B5826085BD85B5816085BDB5
:100E600080916E00816080936E001092810080916D
:100E700081008260809381008091810081608093F5
:100E80008100809180008160809380008091B1001A
:100E900084608093B1008091B00081608093B00045
:100EA00080917A00846080937A0080917A008260D9
:100EB00080937A0080917A00816080937A0080919B
:100EC0007A00806880937A001092C10088E00E94C6
:100ED000870085E00E94870082E00E94870086E00C
:100EE0000E94870083E00E94870087E00E948700BD
:100EF00084E00E9487008DE00E9487008CE00E94C1
:100F0000870081E10E94870061E088E00E94B801CB
:100F1000E0919203F091930382E08083E0918E034D
:100F2000F0918F031082E0919003F091910383E39D
:100F3000808310929A03E0919603F091970386E0E4
:100F40008083E0919403F091950380818061808398
:100F5000E0919403F0919503808188608083E09113
:100F60009403F0919503808180688083E0919403DD
:100F7000F091950380818F7D808380E391E00E94D2
:100F800063058E01085F1F4F8BE1282E81E0382E0C
:100F90002A961FAE2A972B961FAE2B9720E22C96EF
:100FA0002FAF2C972E961FAE1EAE2E9760961FAEBB
:100FB0001EAE609762961FAE1EAE62974AE04B83EC
:100FC00088E08C831E821D821F823A822982CE0194
:100FD00001960E946F0682E893E00E940901892B26
:100FE000D1F382E893E00E940901892BA1F38D815E
:100FF0009E818034910518F01E821D82ECCF82E81C
:1010000093E00E94E700F82E8F81882329F06F2D4E
:1010100082E893E00E944B018B81F8121BC0ED81A6
:10102000FE81E00FF11F10821E821D8262961FAEAC
:101030001EAE62978885811136C0A0E0B0E0AB2B70
:1010400009F4A6CF0E941501882309F49DCF0E94C0
:1010500000009ACF8C81F81216C08D819E81009776
:1010600091F001979E838D838F81882309F4B3CFFC
:1010700060E282E893E00E944B016F2D82E893E0EA
:101080000E944B01A8CF5FE15F1508F0A4CF8D81CE
:101090009E819C012F5F3F4F3E832D83800F911FC8
:1010A000DC01FC9298CF2E961FAF0EAF2E97E0E496
:1010B000F0E06096FFAFEEAF60972A96EFAC2A970C
:1010C0002C964FAD2C97042E000C550B2B96AFADE4
:1010D0002B97FE01319690E080E060E030E020E068
:1010E000FF24F3947781711118C462969FAF8EAF7D
:1010F00062972115310579F0E7E0F0E0EC0FFD1F74
:101100002E0F3F1FD9012C91222329F001966296C0
:101110009FAF8EAF629762968EAD9FAD629701963C
:1011200009F48BCF8DE791E00E9463058EE491E096
:101130000E947505C8010E94630562968EAD9FAD41
:1011400062978530910509F01CC461E671E0CE011B
:10115000875B9F4F0E940005882309F40DC48DE72B
:1011600091E00E94630586E591E00E94750570E0BC
:1011700060E0CE01875B9F4F0E9466020E9463057C
:1011800061E070E0CE01875B9F4F0E9466020E9483
:10119000530E092E000CAA0BBB0B80937E03909379
:1011A0007F03A0938003B093810362E070E0CE01DF
:1011B000875B9F4F0E9466020E94530E092E000C0F
:1011C000AA0BBB0B80937A0390937B03A0937C03C1
:1011D000B0937D0363E070E0CE01875B9F4F0E9478
:1011E00066020E94530E092E000CAA0BBB0B8093C3
:1011F000760390937703A0937803B093790364E028
:1012000070E0CE01875B9F4F0E9466020E94530EE2
:10121000092E000CAA0BBB0B8093720390937303EF
:10122000A0937403B0937503809104018111A1C34D
:1012300080917103882309F49CC386E691E00E94A3
:10124000750560917203709173038091740390919E
:1012500075034AE00E941F0585E791E00E9463053F
:101260008DE791E00E94630588E791E00E94750593
:1012700060917E0370917F03809180039091810340
:101280004AE00E941F058DE791E00E94750560917C
:101290007A0370917B0380917C0390917D034AE0F7
:1012A0000E941F058DE791E00E947505609176030D
:1012B0007091770380917803909179034AE00E94BE
:1012C0001F0581E291E00E9412058FE791E00E94E4
:1012D000630560917E0370917F03809180039091FC
:1012E00081030E948C0F20E030E04FE753E40E941E
:1012F000EB0E4B015C0160917A0370917B0380914E
:101300007C0390917D030E948C0F20E030E04FE73A
:1013100053E40E94EB0E2B013C0160917603709127
:10132000770380917803909179030E948C0F20E0DD
:1013300030E04FE753E40E94EB0E66966CAF7DAF52
:101340008EAF9FAF6697A3019201C501B4010E94C1
:101350003E1018160CF46AC4A301920160E070E01C
:1013600080E89FE30E94790E6B017C0166962CADAC
:101370003DAD4EAD5FAD6697C301B2010E943E1018
:10138000181674F066962CAD3DAD4EAD5FAD669708
:1013900060E070E080E89FE30E94790E6B017C01C1
:1013A000A701960160E070E080E89FE30E94790E5B
:1013B0006A966CAF7DAF8EAF9FAF6A97A50194011F
:1013C00060E070E080E89FE30E94790EA70196013B
:1013D0000E94790E6A962CAD3DAD4EAD5FAD6A9719
:1013E0000E94EB0E20E030E048EC52E40E944310F3
:1013F0000E945D0F60936D0370936E0380936F0383
:1014000090937003A301920160E070E080E89FE395
:101410000E94790EA70196010E94790E6A962CAD62
:101420003DAD4EAD5FAD6A970E94EB0E20E030E01F
:1014300048EC52E40E9443100E945D0F60936903E0
:1014400070936A0380936B0390936C0366962CAD44
:101450003DAD4EAD5FAD669760E070E080E89FE324
:101460000E94790EA70196010E94790E6A962CAD12
:101470003DAD4EAD5FAD6A970E94EB0E20E030E0CF
:1014800048EC52E40E9443100E945D0F6093650394
:1014900070936603809367039093680320E030E0C5
:1014A00048EC52E4C701B6010E9443100E945D0F50
:1014B000609361037093620380936303909364036A
:1014C00087EA91E00E94750560916D0370916E034B
:1014D00080916F03909170034AE00E941F058DE791
:1014E00091E00E9475056091690370916A03809193
:1014F0006B0390916C034AE00E941F058DE791E019
:101500000E94750560916503709166038091670381
:10151000909168034AE00E941F058DE791E00E94C8
:1015200075056091610370916203809163039091EE
:1015300064034AE00E941F0581E291E00E941205C7
:10154000C0907203D0907303E0907403F090750321
:1015500060916D0370916E0380916F0390917003A1
:10156000A70196010E94B5100E948C0F20E030E088
:1015700048EC52E40E94EB0E66966CAF7DAF8EAFE6
:101580009FAF66976091690370916A0380916B03C6
:1015900090916C03A70196010E94B5100E948C0FD8
:1015A00020E030E048EC52E40E94EB0E2B013C01BD
:1015B0006091650370916603809167039091680361
:1015C000A70196010E94B5100E948C0F20E030E028
:1015D00048EC52E40E94EB0E4B015C016091610308
:1015E000709162038091630390916403A701960157
:1015F0000E94B5100E948C0F20E030E048EC52E4CD
:101600000E94EB0E6B017C0120E030E04EEE53E4D3
:1016100066966CAD7DAD8EAD9FAD66970E94431012
:1016200060935D0370935E0380935F039093600308
:1016300020E030EC4AE054E4C301B2010E944310C0
:101640006093590370935A0380935B0390935C03F8
:1016500020E030E04AEF53E4C501B4010E9443109A
:1016600060935503709356038093570390935803E8
:1016700020E030E844E054E4C701B6010E94431082
:1016800060935103709352038093530390935403D8
:101690008DE791E00E9463058FEA91E00E94750555
:1016A00042E066966CAD7DAD8EAD9FAD66970E94B3
:1016B00077058DE791E00E94750542E0C301B20114
:1016C0000E9477058DE791E00E94750542E0C50113
:1016D000B4010E9477058DE791E00E94750542E014
:1016E000C701B6010E94770581E291E00E941205D0
:1016F0008DE791E00E94630560E088E00E94B801F8
:1017000020E030E0A90160915D0370915E0380915B
:101710005F03909160030E94E60E882379F18EEBBF
:1017200091E00E94750560915D0370915E03809168
:101730005F039091600342E00E94770581ED91E0A4
:101740000E94750560910001709101018091020174
:10175000909103010E948C0F9B01AC0160915D038D
:1017600070915E0380915F03909160030E94690411
:1017700088ED91E00E9463050E94530620E030E06E
:10178000A9016091590370915A0380915B03909174
:101790005C030E94E60E882379F187EE91E00E94B7
:1017A00075056091590370915A0380915B03909184
:1017B0005C0342E00E94770581ED91E00E9475058F
:1017C00060910001709101018091020190910301EB
:1017D0000E948C0F9B01AC016091590370915A03D8
:1017E00080915B0390915C030E94D20388ED91E0AD
:1017F0000E9463050E94530620E030E0A901609139
:1018000055037091560380915703909158030E949D
:10181000E60E882379F18DEF91E00E9475056091C5
:10182000550370915603809157039091580342E0FD
:101830000E94770581ED91E00E947505609100019D
:101840007091010180910201909103010E948C0F1F
:101850009B01AC0160915503709156038091570331
:10186000909158030E943B0388ED91E00E9463052C
:101870000E94530620E030E0A9016091510370916D
:10188000520380915303909154030E94E60E8823E3
:1018900079F182E192E00E947505609151037091A7
:1018A0005203809153039091540342E00E947705C4
:1018B00081ED91E00E947505609100017091010138
:1018C00080910201909103010E948C0F9B01AC0159
:1018D000609151037091520380915303909154038E
:1018E0000E94A40288ED91E00E9463050E945306C5
:1018F0008DE791E00E94630584E292E00E94630517
:101900008DE791E00E9463058DE791E00E946305F9
:1019100080E391E00E94630590CB8E3FBFEF9B0771
:1019200009F4E3CBE1100CC0723251F417826F2539
:101930002115310581F07681772369F001960BC07E
:10194000611109C07417150611F41782F1CFAA238B
:1019500071F07D33D1F32F5F3F4F31962034310545
:1019600009F0C0CB62969FAF8EAF6297DBCB6A2F38
:10197000F2CF87E392E0C6CF89E592E00E9463054B
:10198000C1C08230910509F047C06DE672E0CE011A
:10199000875B9F4F0E9400058823D9F161E070E0CA
:1019A000CE01875B9F4F0E9466020E94530E092E54
:1019B000000CAA0BBB0B8139E1E09E07A105B10524
:1019C000F0F080E991E0A0E0B0E080930001909316
:1019D0000101A0930201B093030183E792E00E940A
:1019E0007505609100017091010180910201909153
:1019F00003014AE00E941F0585E892E0BFCF8436CC
:101A00009105A105B10508F784E690E0A0E0B0E0FB
:101A1000DCCF8AE892E0B2CF0197D9F76AE972E0A9
:101A2000CE01875B9F4F0E940005882309F470C098
:101A300080910401882309F468C060E088E00E9476
:101A4000B8018FE992E00E947505609100017091E4
:101A5000010180910201909103010E948C0F9B0172
:101A6000AC0160E070E88BE395E40E9469048AE4CD
:101A700091E00E94750560910001709101018091D3
:101A80000201909103010E948C0F9B01AC0160E068
:101A900070E88BE395E40E94D2038AE491E00E940F
:101AA0007505609100017091010180910201909192
:101AB00003010E948C0F9B01AC0160E070E88BE396
:101AC00095E40E943B038AE491E00E9475056091D1
:101AD00000017091010180910201909103010E9427
:101AE0008C0F9B01AC0160E070E88BE395E40E94F1
:101AF000A4028EED91E00E94630581E08093710362
:101B0000109204018DE791E005CF8BEB92E036CF88
:101B10006EEC72E0CE01875B9F4F0E940005882328
:101B200051F080EE92E00E9463051092040181E082
:101B30008093710382CA6BE173E0CE01875B9F4F94
:101B40000E940005882309F464CF8091040181116B
:101B50006AC060E088E00E94B80181E293E00E94E0
:101B600075056091000170910101809102019091D1
:101B700003010E948C0F9B01AC0160E070E88BE3D5
:101B800095EC0E9469048AE491E00E9475056091D9
:101B900000017091010180910201909103010E9466
:101BA0008C0F9B01AC0160E070E88BE395EC0E9428
:101BB000D2038AE491E00E94750560910001709162
:101BC000010180910201909103010E948C0F9B0101
:101BD000AC0160E070E88BE395EC0E943B038AE483
:101BE00091E00E9475056091000170910101809162
:101BF0000201909103010E948C0F9B01AC0160E0F7
:101C000070E88BE395EC0E94A4028EED91E00E94B7
:101C1000630561E088E00E94B80181E080930401DF
:101C2000109271036FCF83E393E0A8CE66962CAD3C
:101C30003DAD4EAD5FAD6697C501B4010E943E104B
:101C4000A501940118160CF4A3CB9CCBE2E8F3E0B9
:101C50001382128288EE93E0A0E0B0E08483958343
:101C6000A683B78389E091E09183808385EC90E03F
:101C70009587848784EC90E09787868780EC90E056
:101C8000918B808B81EC90E0938B828B82EC90E047
:101C9000958B848B86EC90E0978B868B118E128EC1
:101CA000138E148E0895FC0188279927E8942191BA
:101CB0002032E9F3293010F02E30C8F32B3241F0F6
:101CC0002D3239F4689404C00E94710E820F911D68
:101CD000219120532A30C0F31EF4909581959F4F97
:101CE00008957AE0979F902D879F802D910D112464
:101CF00008955058BB27AA270E94910E0C940410F7
:101D00000E94F60F38F00E94FD0F20F039F49F3F3B
:101D100019F426F40C94F30F0EF4E095E7FB0C9401
:101D2000ED0FE92F0E94151058F3BA1762077307D9
:101D30008407950720F079F4A6F50C9437100EF47B
:101D4000E0950B2EBA2FA02D0B01B90190010C01CB
:101D5000CA01A0011124FF27591B99F0593F50F4E3
:101D6000503E68F11A16F040A22F232F342F44273B
:101D7000585FF3CF469537952795A795F040539533
:101D8000C9F77EF41F16BA0B620B730B840BBAF003
:101D90009150A1F0FF0FBB1F661F771F881FC2F76E
:101DA0000EC0BA0F621F731F841F48F48795779582
:101DB0006795B795F7959E3F08F0B0CF9395880F3C
:101DC00008F09927EE0F9795879508950E94C90FFF
:101DD00008F481E008950E94FF0E0C9404100E9404
:101DE000FD0F58F00E94F60F40F029F45F3F29F0F4
:101DF0000C94ED0F51110C9438100C94F30F0E94B9
:101E0000151068F39923B1F3552391F3951B550BE6
:101E1000BB27AA2762177307840738F09F5F5F4FBD
:101E2000220F331F441FAA1FA9F335D00E2E3AF0FC
:101E3000E0E832D091505040E695001CCAF72BD014
:101E4000FE2F29D0660F771F881FBB1F2617370765
:101E50004807AB07B0E809F0BB0B802DBF01FF2797
:101E600093585F4F3AF09E3F510578F00C94ED0F78
:101E70000C9438105F3FE4F3983ED4F38695779541
:101E80006795B795F7959F5FC9F7880F911D969550
:101E9000879597F90895E1E0660F771F881FBB1FAC
:101EA000621773078407BA0720F0621B730B840B59
:101EB000BA0BEE1F88F7E09508950E941D1088F078
:101EC0009F5798F0B92F9927B751B0F0E1F0660FFE
:101ED000771F881F991F1AF0BA95C9F714C0B1303F
:101EE00091F00E943710B1E008950C943710672FDD
:101EF000782F8827B85F39F0B93FCCF3869577956E
:101F00006795B395D9F73EF4909580957095619556
:101F10007F4F8F4F9F4F0895E89409C097FB3EF481
:101F200090958095709561957F4F8F4F9F4F992326
:101F3000A9F0F92F96E9BB279395F69587957795A4
:101F40006795B795F111F8CFFAF4BB0F11F460FF64
:101F50001BC06F5F7F4F8F4F9F4F16C0882311F0BC
:101F600096E911C0772321F09EE8872F762F05C0D0
:101F7000662371F096E8862F70E060E02AF09A956B
:101F8000660F771F881FDAF7880F9695879597F960
:101F90000895990F0008550FAA0BE0E8FEEF1616FA
:101FA0001706E807F907C0F012161306E407F5074D
:101FB00098F0621B730B840B950B39F40A2661F0C1
:101FC000232B242B252B21F408950A2609F4A14064
:101FD000A6958FEF811D811D089597F99F6780E871
:101FE00070E060E008959FEF80EC089500240A946B
:101FF0001616170618060906089500240A941216E4
:102000001306140605060895092E0394000C11F416
:10201000882352F0BB0F40F4BF2B11F460FF04C0C3
:102020006F5F7F4F8F4F9F4F089557FD9058440F1C
:10203000551F59F05F3F71F04795880F97FB991F27
:1020400061F09F3F79F087950895121613061406E4
:10205000551FF2CF4695F1DF08C016161706180671
:10206000991FF1CF86957105610508940895E8944C
:10207000BB2766277727CB0197F908950E94C90FE0
:1020800008F48FEF08950E9456100C9404100E94DB
:10209000F60F38F00E94FD0F20F0952311F00C94FC
:1020A000ED0F0C94F30F11240C9438100E941510AE
:1020B00070F3959FC1F3950F50E0551F629FF0019B
:1020C000729FBB27F00DB11D639FAA27F00DB11DB4
:1020D000AA1F649F6627B00DA11D661F829F22273D
:1020E000B00DA11D621F739FB00DA11D621F839FC4
:1020F000A00D611D221F749F3327A00D611D231F9A
:10210000849F600D211D822F762F6A2F11249F57E7
:1021100050409AF0F1F088234AF0EE0FFF1FBB1FEA
:10212000661F771F881F91505040A9F79E3F5105A9
:1021300080F00C94ED0F0C9438105F3FE4F3983E60
:10214000D4F3869577956795B795F795E7959F5F53
:10215000C1F7FE2B880F911D9695879597F90895E5
:102160000E94C90F880B990B0895DB018F939F93F1
:102170000E94E710BF91AF91A29F800D911DA39F78
:10218000900DB29F900D11240895A1E21A2EAA1B62
:10219000BB1BFD010DC0AA1FBB1FEE1FFF1FA21717
:1021A000B307E407F50720F0A21BB30BE40BF50B14
:1021B000661F771F881F991F1A9469F7609570959D
:1021C000809590959B01AC01BD01CF0108950E94BF
:1021D000F810A59F900DB49F900DA49F800D911DA8
:1021E00011240895EE0FFF1F0590F491E02D09943E
:1021F000A29FB001B39FC001A39F700D811D112448
:10220000911DB29F700D811D1124911D089581E0D3
:1022100090E0F8940C941F11FB01DC018D91813446
:102220001CF08B350CF4805E619161341CF06B35D1
:102230000CF4605E861B611189F3990B0895F89484
:02224000FFCFCE
:102242006400000001000000004B01AB00D80098C0
:10225200010901E700FB00000000006F06A900A6CB
:10226200000D0A006E616E00696E66006F76660090
:1022720053656E6420636F6D6D616E6420746F20B0
:102282006F7065726174652E2E2E2E2E2E00506197
:102292007273696E6720436F6D6D616E64203A20C0
:1022A2000050554D50004261736520566F6C756D3C
:1022B20065203A20006D6C00524742203A200043CC
:1022C2006F6E76657274696E672052474220746F32
:1022D20020434D594B2028302D323535203D3E20AC
:1022E200302D3130302900434D594B203A200043E4
:1022F2006F6C6F7220566F6C756D653A2000507569
:102302006D70696E67204379616E20776974682009
:102312000020537465707300202020202E2E2E2E54
:102322002E446F6E65210050756D70696E67204D89
:102332006167656E74612077697468200050756DFD
:1023420070696E672059656C6C6F77207769746865
:10235200200050756D70696E67204B657920776932
:1023620074682000416C6C20636F6C6F7273207014
:10237200756D70656421004C6F616420746865201E
:1023820070756D7073207468656E20747279206147
:102392006761696E2E2E2E2100496E76616C69642A
:1023A20020436F6D6D616E642E2E2E2100535045B9
:1023B200454400466C6F77205261746520736574E2
:1023C20020746F20002052504D00496E76616C6976
:1023D2006420436F6D6D616E64004C4F4144004C4C
:1023E2006F6164696E6720466C75696420696E74FA
:1023F2006F2050756D70732E2E2E00416C726561C8
:102402006479204C6F616465642E2E2E21004C4F3E
:1024120041445F4E4F545F52455155495245440025
:10242200506C6561736520656E73757265207468A2
:102432006174206675696C64206973206C6F6164D5
:102442006564206265666F726520636F6E74696E83
:1024520075696E672E2E2E2E2E2100434C45414E5D
:1024620000436C65616E696E672050756D70732EE6
:102472002E2E0050756D70732061726520636C653D
:08248200616E2E2E2E210000D8
:00000001FF
