:020000040000FA
:100000000C945E000C9486000C9486000C94860080
:100010000C9486000C9486000C9486000C94860048
:100020000C9486000C9486000C9486000C94860038
:100030000C9486000C9486000C9486000C94860028
:100040000C94A4070C9486000C9472070C944C0733
:100050000C9486000C9486000C9486000C94860008
:100060000C9486000C948600000000080002010039
:100070000003040700000000000000000000000072
:10008000250028002B0000000000240027002A0083
:10009000040404040404040402020202020203032E
:1000A0000303030301020408102040800102040836
:1000B0001020010204081020EE07570E11241FBE65
:1000C000CFEFD8E0DEBFCDBF24E0A6EEB3E001C0A5
:1000D0001D92A83BB207E1F713E0A0E0B1E0E0E732
:1000E000F6E202C005900D92A63EB107D9F710E0E6
:1000F000CDE5D0E004C02197FE010E942B11CC3544
:10010000D107C9F70E9466080C942B130C940000C9
:1001100090E0FC01EC55FF4F249180579F4FFC016C
:100120008491882399F090E0880F991FFC01EA5789
:10013000FF4FA591B491FC01E458FF4F8591949134
:100140008FB7F894EC91E22BEC938FBF089508954C
:10015000AF92BF92CF92DF92EF92FF920F931F93D5
:10016000CF93DF936C017B018B01040F151FEB0113
:100170005E01AE18BF08C017D10759F06991D601CA
:10018000ED91FC910190F081E02DC6010995892B3C
:1001900079F7C501DF91CF911F910F91FF90EF90FB
:1001A000DF90CF90BF90AF900895FC01538D448DA8
:1001B000252F30E0842F90E0821B930B541710F012
:1001C000CF96089501970895FC01918D828D98171F
:1001D00061F0A28DAE0FBF2FB11D5D968C91928DF7
:1001E0009F5F9F73928F90E008958FEF9FEF089528
:1001F0002FB7F89480910D0490910E04A0910F04F4
:10020000B09110042FBF8093190490931A04A09307
:100210001B04B0931C0481E194E00E94E40097FF6A
:1002200026C02FB7F89480910D0490910E04A091F0
:100230000F04B09110042FBF4091190450911A047B
:1002400060911B0470911C04841B950BA60BB70BCB
:100250004091150450911604609117047091180490
:1002600084179507A607B707B0F28FEF9FEF0895A1
:10027000FC01918D828D981731F0828DE80FF11D70
:10028000858D90E008958FEF9FEF08952FB7F89434
:1002900080910D0490910E04A0910F04B091100470
:1002A0002FBF8093190490931A04A0931B04B0935A
:1002B0001C0481E194E00E94380197FF26C02FB70B
:1002C000F89480910D0490910E04A0910F04B091C8
:1002D00010042FBF4091190450911A0460911B041F
:1002E00070911C04841B950BA60BB70B4091150451
:1002F00050911604609117047091180484179507A3
:10030000A607B707B0F28FEF9FEF0895CF92DF9265
:10031000EF92FF92CF930E944601FC0197FD4EC0E1
:100320008D32910521F0C0970A9708F040C0C12C8A
:10033000D12C7601C0E0E130F105D1F0ED32F105CC
:10034000D9F1CF01C0970A9798F4AAE0B0E0A701CD
:1003500096010E94900F6F01FF0FEE08FF08C60E76
:10036000D71EE81EF91E80E3C81AD108E108F1087B
:1003700081E194E00E94E4000E944601FC01C097E4
:100380000A97C8F2E130F105B1F2CC2341F0F094C4
:10039000E094D094C094C11CD11CE11CF11CC70195
:1003A000B601CF91FF90EF90DF90CF90089581E15B
:1003B00094E00E94E400AFCFC1E0DACFC12CD12C91
:1003C0007601EDCFFC01918D228D892F90E0805C2C
:1003D0009F4F821B91098F739927089581E194E0C3
:1003E0000E94E20121E0892B09F420E0822F089588
:1003F00080E090E0892B29F00E94EE0181110C949D
:1004000000000895FC01A48DA80FB92FB11DA35AB7
:10041000BF4F2C91848D90E001968F739927848F24
:10042000A689B7892C93A089B1898C918370806447
:100430008C93938D848D981306C00288F389E02DE8
:1004400080818F7D80830895EF92FF920F931F9399
:10045000CF93DF93EC0181E0888F9B8D8C8D981377
:100460001AC0E889F989808185FF15C09FB7F89483
:10047000EE89FF896083E889F989808183708064CF
:1004800080839FBF81E090E0DF91CF911F910F911A
:10049000FF90EF900895F62E0B8D10E00F5F1F4F29
:1004A0000F731127E02E8C8D8E110CC00FB607FC38
:1004B000FACFE889F989808185FFF5CFCE010E94C6
:1004C0000202F1CFEB8DEC0FFD2FF11DE35AFF4F30
:1004D000F0829FB7F8940B8FEA89FB898081806254
:1004E000CFCFCF93DF93EC01888D8823B9F0AA8911
:1004F000BB89E889F9898C9185FD03C0808186FDDF
:100500000DC00FB607FCF7CF8C9185FFF2CF80812D
:1005100085FFEDCFCE010E940202E9CFDF91CF919E
:10052000089590E0FC01E859FF4F2491FC01EC553F
:10053000FF4F3491FC01E057FF4FE491EE23C9F0E7
:10054000222339F0233001F1A8F4213019F12230AF
:1005500029F1F0E0EE0FFF1FE458FF4FA591B49191
:100560008FB7F894EC91611126C030953E233C93EF
:100570008FBF08952730A9F02830C9F0243049F7FB
:10058000809180008F7D03C0809180008F77809361
:100590008000DFCF84B58F7784BDDBCF84B58F7DBE
:1005A000FBCF8091B0008F778093B000D2CF809145
:1005B000B0008F7DF9CF3E2BDACF8230910538F035
:1005C000880F991F880F991F05970197F1F70895D4
:1005D0003FB7F8948091E7039091E803A091E90375
:1005E000B091EA0326B5A89B05C02F3F19F00196EC
:1005F000A11DB11D3FBFBA2FA92F982F8827BC017D
:10060000CD01620F711D811D911D42E0660F771FA4
:10061000881F991F4A95D1F708958F929F92AF92A4
:10062000BF92CF92DF92EF92FF924B015C010E944A
:10063000E8026B017C010E94E8026C197D098E09B9
:100640009F09683E734081059105A8F321E0821A55
:100650009108A108B10888EEC80E83E0D81EE11CFD
:10066000F11C81149104A104B10429F7FF90EF90CB
:10067000DF90CF90BF90AF909F908F9008954F9252
:100680005F926F927F928F929F92AF92BF92CF9222
:10069000DF92EF92FF922B013C01CA01B90120E0E9
:1006A00030E048E453E40E94CF0E9B01AC0160E0CF
:1006B00070E080E792E40E944E1020E034E244E7CC
:1006C00059E40E94CF0E20E030E040E05FE30E945A
:1006D000CF0E20E030E040EA50E40E94E10F0E949B
:1006E000C0106B0120E030E0A901C301B2010E94FB
:1006F000EF1018162CF561E08DE00E949102812C1C
:10070000912C5401C501B4010E946E0EA301920107
:100710000E94690E87FF3DC061E08CE00E9491025B
:10072000C6010E94DD0260E08CE00E949102C601D9
:100730000E94DD028FEF881A980AA80AB80AE2CF51
:1007400060E08DE00E94910277FA709477F87094DF
:10075000812C912C5401C501B4010E946E0EA3019D
:1007600092010E94690E87FF14C061E08CE00E9434
:100770009102C6010E94DD0260E08CE00E949102BD
:10078000C6010E94DD028FEF881A980AA80AB80AEB
:10079000E2CFFF90EF90DF90CF90BF90AF909F900F
:1007A0008F907F906F905F904F9008954F925F92DF
:1007B0006F927F928F929F92AF92BF92CF92DF9271
:1007C000EF92FF922B013C01CA01B90120E030E019
:1007D00048E453E40E94CF0E9B01AC0160E070E05E
:1007E00080E792E40E944E1020E034E244E759E4AE
:1007F0000E94CF0E20E030E040E05FE30E94CF0E89
:1008000020E030E040EA50E40E94E10F0E94C01076
:100810006B0120E030E0A901C301B2010E94EF109A
:1008200018162CF561E087E00E949102812C912C32
:100830005401C501B4010E946E0EA30192010E94F1
:10084000690E87FF3DC061E084E00E949102C6010D
:100850000E94DD0260E084E00E949102C6010E94D5
:10086000DD028FEF881A980AA80AB80AE2CF60E082
:1008700087E00E94910277FA709477F87094812C47
:10088000912C5401C501B4010E946E0EA301920186
:100890000E94690E87FF14C061E084E00E9491020B
:1008A000C6010E94DD0260E084E00E949102C60160
:1008B0000E94DD028FEF881A980AA80AB80AE2CFD0
:1008C000FF90EF90DF90CF90BF90AF909F908F9070
:1008D0007F906F905F904F9008954F925F926F92CC
:1008E0007F928F929F92AF92BF92CF92DF92EF92C0
:1008F000FF922B013C01CA01B90120E030E048E43D
:1009000053E40E94CF0E9B01AC0160E070E080E7F1
:1009100092E40E944E1020E034E244E759E40E9441
:10092000CF0E20E030E040E05FE30E94CF0E20E0F9
:1009300030E040EA50E40E94E10F0E94C0106B01D9
:1009400020E030E0A901C301B2010E94EF101816A7
:100950002CF561E086E00E949102812C912C5401DB
:10096000C501B4010E946E0EA30192010E94690E9E
:1009700087FF3DC061E083E00E949102C6010E94B2
:10098000DD0260E083E00E949102C6010E94DD0268
:100990008FEF881A980AA80AB80AE2CF60E086E0CA
:1009A0000E94910277FA709477F87094812C912CC0
:1009B0005401C501B4010E946E0EA30192010E9470
:1009C000690E87FF14C061E083E00E949102C601B6
:1009D0000E94DD0260E083E00E949102C6010E9455
:1009E000DD028FEF881A980AA80AB80AE2CFFF90B2
:1009F000EF90DF90CF90BF90AF909F908F907F90BF
:100A00006F905F904F9008954F925F926F927F9298
:100A10008F929F92AF92BF92CF92DF92EF92FF920E
:100A20002B013C01CA01B90120E030E048E453E465
:100A30000E94CF0E9B01AC0160E070E080E792E481
:100A40000E944E1020E034E244E759E40E94CF0EA9
:100A500020E030E040E05FE30E94CF0E20E030E095
:100A600040EA50E40E94E10F0E94C0106B0120E0B8
:100A700030E0A901C301B2010E94EF1018162CF555
:100A800061E085E00E949102812C912C5401C50106
:100A9000B4010E946E0EA30192010E94690E87FFAD
:100AA0003DC061E082E00E949102C6010E94DD0229
:100AB00060E082E00E949102C6010E94DD028FEF99
:100AC000881A980AA80AB80AE2CF60E085E00E9476
:100AD000910277FA709477F87094812C912C5401DC
:100AE000C501B4010E946E0EA30192010E94690E1D
:100AF00087FF14C061E082E00E949102C6010E945B
:100B0000DD0260E082E00E949102C6010E94DD02E7
:100B10008FEF881A980AA80AB80AE2CFFF90EF90E0
:100B2000DF90CF90BF90AF909F908F907F906F900D
:100B30005F904F900895FC0101900020E9F73197F4
:100B4000AF01481B590BBC0181E194E00C94A80053
:100B500081E291E00C949B058F929F92AF92BF929D
:100B60000F931F93CF93DF93CDB7DEB7A1970FB647
:100B7000F894DEBF0FBECDBF19A2423008F44AE0A0
:100B80008E010F5D1F4F842E912CB12CA12CA5013D
:100B900094010E940911E62FB901CA01EA30F4F468
:100BA000E05DD801EE938D01232B242B252B79F7C3
:100BB00090E080E0109719F0CD010E949B05A1966E
:100BC0000FB6F894DEBF0FBECDBFDF91CF911F915E
:100BD0000F91BF90AF909F908F900895E95CE1CF07
:100BE000CF93DF930E949B05EC010E94A8058C0F18
:100BF0009D1FDF91CF9108950C949B054F925F92BA
:100C00006F927F928F929F92AF92BF92CF92DF921C
:100C1000EF92FF920F931F93CF936B017C01742E81
:100C2000AC019B010E94F410882399F084E291E0CA
:100C3000CF911F910F91FF90EF90DF90CF90BF90D9
:100C4000AF909F908F907F906F905F904F900C949B
:100C50009B0546015701E894B7F82FEF3FEF4FE7A8
:100C60005FE7C501B4010E94F41081110DC02FEFA0
:100C70003FEF4FE75FE7C501B4010E94690E181608
:100C80001CF488E291E0D4CF2FEF3FEF4FE75FE411
:100C9000C701B6010E94EF1018161CF48CE291E017
:100CA000C7CF2FEF3FEF4FE75FECC701B6010E94C0
:100CB000690E87FDF3CF20E030E0A901C701B6013E
:100CC0000E94690E10E000E087FF0AC06DE281E13A
:100CD00094E00E9424028C01F7FAF094F7F8F09463
:100CE000C0E060E070E080E09FE37C1641F020E02F
:100CF00030E040E251E40E944E10CF5FF6CFA701F2
:100D000096010E94E20F2B013C010E94C0104B0192
:100D10005C014AE00E94AC057C01E00EF11ECC2390
:100D2000C1F1C501B4010E946E0E9B01AC01C3016B
:100D3000B2010E94E10F4B015C016EE281E194E09F
:100D40000E942402E80EF91EC15018F120E030E0A4
:100D500040E251E4C501B4010E94CF0E2B013C01D9
:100D60000E94C0104B01B12CA12C4AE0C501B40176
:100D70000E94AC05E80EF91EC501B4010E946E0E7A
:100D80009B01AC01C301B2010E94E10F4B015C0168
:100D9000DBCFC701CF911F910F91FF90EF90DF90B4
:100DA000CF90BF90AF909F908F907F906F905F900B
:100DB0004F900895CF92DF92EF92FF92CF93DF93FF
:100DC0006C01990FEE08FF08F7FE19C06DE281E192
:100DD00094E00E942402EC0166277727CB016C196E
:100DE0007D098E099F094AE00E94AC058C0F9D1F6A
:100DF000DF91CF91FF90EF90DF90CF9008954AE080
:100E0000C701B601DF91CF91FF90EF90DF90CF90B7
:100E10000C94AC0581E10E94880061E081E10E94B0
:100E2000910268EE73E080E090E00E940D0381E1A2
:100E30000E94880060E081E10E94910262E370E01C
:100E400080E090E00C940D030F931F93CF93DF93FA
:100E5000EC0188819981009759F02A813B812617FE
:100E6000370730F081E0DF91CF911F910F91089506
:100E70008B016F5F7F4F0E945612009759F0998344
:100E800088831B830A832C813D81232B59F7FC0126
:100E90001082E8CF80E0E7CF1F920F920FB60F923B
:100EA00011242F933F934F935F936F937F938F936F
:100EB0009F93AF93BF93EF93FF9381E194E00E94E0
:100EC0000202FF91EF91BF91AF919F918F917F911E
:100ED0006F915F914F913F912F910F900FBE0F90A7
:100EE0001F9018951F920F920FB60F9211242F93F7
:100EF0008F939F93EF93FF93E0912104F09122044D
:100F00008081E0912704F091280482FD1BC090812C
:100F100080912A048F5F8F7320912B04821741F0F8
:100F2000E0912A04F0E0EF5EFB4F958F80932A0456
:100F3000FF91EF919F918F912F910F900FBE0F9086
:100F40001F9018958081F4CF1F920F920FB60F92C9
:100F500011242F933F938F939F93AF93BF938091CF
:100F60000D0490910E04A0910F04B09110043091E3
:100F7000E60323E0230F2D3758F50196A11DB11D7F
:100F80002093E60380930D0490930E04A0930F0426
:100F9000B09310048091E7039091E803A091E903D6
:100FA000B091EA030196A11DB11D8093E7039093D0
:100FB000E803A093E903B093EA03BF91AF919F9137
:100FC0008F913F912F910F900FBE0F901F9018950A
:100FD00026E8230F0296A11DB11DD2CF1092140452
:100FE0001092130488EE93E0A0E0B0E08093150423
:100FF00090931604A0931704B093180483E191E032
:10100000909312048093110485EC90E090931E0459
:1010100080931D0484EC90E09093200480931F043F
:1010200080EC90E0909322048093210481EC90E086
:10103000909324048093230482EC90E09093260400
:101040008093250486EC90E09093280480932704F5
:1010500010922A0410922B0410922C0410922D044A
:101060001092AF041092AE041092B1041092B0042A
:101070001092B3041092B20461E070E08EEA94E042
:101080000E9424072091AE043091AF04811113C057
:101090002115310519F0C9010E94CD111092AF043C
:1010A0001092AE041092B3041092B2041092B104E4
:1010B0001092B004089581E090E09093B30480937F
:1010C000B2046CE771E0C9010C942413CF93DF9351
:1010D000CDB7DEB760970FB6F894DEBF0FBECDBFB9
:1010E000789484B5826084BD84B5816084BD85B503
:1010F000826085BD85B5816085BD80916E0081600F
:1011000080936E00109281008091810082608093B4
:1011100081008091810081608093810080918000B6
:101120008160809380008091B10084608093B100E1
:101130008091B00081608093B00080917A008460DB
:1011400080937A0080917A00826080937A00809107
:101150007A00816080937A0080917A008068809321
:101160007A001092C10088E00E94880085E00E9409
:10117000880082E00E94880086E00E94880083E068
:101180000E94880087E00E94880084E00E94880016
:101190008DE00E9488008CE00E94880081E10E941E
:1011A000880061E088E00E949102E0912104F091C2
:1011B000220482E08083E0911D04F0911E041082DD
:1011C000E0911F04F09120048FEC80831092290499
:1011D000E0912504F091260486E08083E0912304C9
:1011E000F0912404808180618083E0912304F09158
:1011F0002404808188608083E0912304F09124049A
:10120000808180688083E0912304F09124048081B0
:101210008F7D808380E391E00E94F00582E491E07D
:101220000E94F00500E010E081E194E00E94E201FC
:10123000181619060CF044C21A8219821C821B82ED
:101240001E821D8270E060E0CE0101960E9424079C
:1012500029813A8181112CC02115310519F0C9016C
:101260000E94CD111A8219821E821D821C821B824D
:101270000E94F80097FD24C08F831886ED80FE80C1
:101280008FEFE81AF80AB701CE0101960E942407F1
:10129000882371F329813A818D819E81BE01695F26
:1012A0007F4F820F931F0E942413FE82ED82E0CFB6
:1012B0001E821D8263E271E0C9010E942413D8CF0F
:1012C0008091AE049091AF04009709F4B3C0698196
:1012D0007A816115710509F4ABC04091B004509159
:1012E000B1042D813E814217530708F4A1C00E942A
:1012F00024138D819E819093B3048093B2041E8247
:101300001D8289819A81009711F00E94CD11A090D1
:10131000AE04B090AF04A114B10449F0E090B2045F
:10132000F090B3046501E114F10409F09BC085E677
:1013300091E00E94FC054091B2045091B304609189
:10134000AE047091AF0481E194E00E94A8000E9475
:10135000A8058091B2049091B304892B31F0E091FB
:10136000AE04F091AF04309721F41092EB03EBEE52
:10137000F3E08081082E000C990B0E9413138C3629
:10138000910509F4ACC18D36910509F4A9C08336E5
:10139000910509F0F7C180910801882309F49CC1E7
:1013A00060E088E00E9491028EE393E00E94FC05D9
:1013B00020E030E048EC52E460E070E88BE395E434
:1013C0000E9404058CE993E00E94FC0520E030E0D7
:1013D00048EC52E460E070E88BE395E40E946D0411
:1013E0008CE993E00E94FC0520E030E048EC52E4F8
:1013F00060E070E88BE395E40E94D6038CE993E00B
:101400000E94FC0520E030E048EC52E460E070E827
:101410008BE395E40E943F0380E693E00E94F00591
:1014200081E080930C041092080189E693E046C1A4
:101430000E94CD1189819A819093AF048093AE046C
:101440008B819C819093B1048093B0048D819E81A7
:101450009093B3048093B2041A8219821C821B8277
:101460004ECF64014601EFEF8E1A9E0AF60180818D
:10147000082E000C990B0E94600E892B91F7F1E069
:10148000EF1AF108EA0CFB1CF7018081082E000C12
:10149000990B0E94600E892B39F0EC14FD0420F0AA
:1014A000F1E0EF1AF108F0CFA7014F5F5F4F4C1941
:1014B0005D095093B3044093B204AC14BD0420F40E
:1014C000B601C5010E941B13E091AE04F091AF0478
:1014D0008091B2049091B304E80FF91F108227CFD6
:1014E0000E94A8058EE691E00E94F0058091080117
:1014F0008111E2C080910C04882309F4DDC08EE7DD
:1015000091E00E94F0050E9486017B017093070123
:101510006093060168EE73E080E090E00E940D03A6
:101520008FEFE816F806B1F381EB91E00E94F00529
:101530000E9486017B01709305016093040168EEAF
:1015400073E080E090E00E940D03EFEFEE16FE06E0
:10155000B1F386EE91E00E94F0050E9486017B01C6
:10156000709303016093020168EE73E080E090E005
:101570000E940D03FFEFEF16FF06B1F38AE192E040
:101580000E94F0050E9486017B0170930101609327
:10159000000168EE73E080E090E00E940D038FEFA1
:1015A000E816F806B1F38CE392E00E94F00586E4B9
:1015B00092E00E94FC0580910601909107010E9433
:1015C000DA060E94A8058DE492E00E94FC05809155
:1015D0000401909105010E94DA060E94A80585E5A4
:1015E00092E00E94FC0580910201909103010E940B
:1015F000DA060E94A8058CE592E00E94FC05809125
:101600000001909101010E94DA060E94A80586E679
:1016100092E00E94F0056091060170910701072E8B
:10162000000C880B990B0E94700E20E030E04FE711
:1016300053E40E944E1069877A878B879C8760915C
:10164000040170910501072E000C880B990B0E9474
:10165000700E20E030E04FE753E40E944E104B0143
:101660005C016091020170910301072E000C880B50
:10167000990B0E94700E20E030E04FE753E40E9487
:101680004E102B013C01A501940169857A858B855B
:101690009C850E94EF10A301920118160CF475C0EE
:1016A000C501B4010E94EF10A501940118160CF4B5
:1016B00079C0A301920176C088E193E00E94F00511
:1016C0000115110509F4B0CD0E94EE01882309F43B
:1016D000ABCD0E940000A8CD89E793E0EFCF8091C9
:1016E000080181114CC060E088E00E9491028CE802
:1016F00093E00E94FC0520E030E048EC52E460E01A
:1017000070E88BE395EC0E9404058CE993E00E945D
:10171000FC0520E030E048EC52E460E070E88BE348
:1017200095EC0E946D048CE993E00E94FC0520E09A
:1017300030E048EC52E460E070E88BE395EC0E9406
:10174000D6038CE993E00E94FC0520E030E048ECF1
:1017500052E460E070E88BE395EC0E943F0380E682
:1017600093E00E94F00561E088E00E94910281E030
:101770008093080110920C0488E992E09FCF80EAE0
:1017800093E092C280EB93E099CF69857A858B854F
:101790009C850E94EF1018160CF08BCF29853A8596
:1017A0004B855C8560E070E080E89FE30E94E10F7C
:1017B0006B017C01AC019B0160E070E080E89FE37D
:1017C0000E94E10F6D877E878F87988B29853A85E8
:1017D0004B855C8560E070E080E89FE30E94E10F4C
:1017E000A70196010E94E10F2D853E854F855889FE
:1017F0000E944E1020E030E048EC52E40E94CF0EF0
:101800000E94C010609308047093090480930A0436
:1018100090930B04A501940160E070E080E89FE3E1
:101820000E94E10FA70196010E94E10F2D853E85E0
:101830004F8558890E944E1020E030E048EC52E479
:101840000E94CF0E0E94C0106093040470930504A0
:101850008093060490930704A301920160E070E076
:1018600080E89FE30E94E10FA70196010E94E10F2B
:101870002D853E854F8558890E944E1020E030E02E
:1018800048EC52E40E94CF0E0E94C0106093000406
:1018900070930104809302049093030420E030E0ED
:1018A00048EC52E4C701B6010E94CF0E0E94C0105E
:1018B0006093FC037093FD038093FE039093FF03FA
:1018C00082E992E00E94FC0560910804709109048D
:1018D00080910A0490910B044AE00E94AC0588E9CB
:1018E00092E00E94FC0560910404709105048091CF
:1018F0000604909107044AE00E94AC0588E992E052
:101900000E94FC0560910004709101048091020422
:10191000909103044AE00E94AC0588E992E00E949D
:10192000FC056091FC037091FD038091FE03909192
:10193000FF034AE00E94AC050E94A805C090000188
:10194000D09001010D2C000CEE08FF0860910804F6
:101950007091090480910A0490910B04A7019601EB
:101960000E94F9100E946E0E20E030E048EC52E434
:101970000E944E102B013C016091040470910504FB
:101980008091060490910704A70196010E94F91026
:101990000E946E0E20E030E048EC52E40E944E10AF
:1019A0004B015C016091000470910104809102047C
:1019B00090910304A70196010E94F9100E946E0EF7
:1019C00020E030E048EC52E40E944E1069877A87AC
:1019D0008B879C876091FC037091FD038091FE03CF
:1019E0009091FF03A70196010E94F9100E946E0ECC
:1019F00020E030E048EC52E40E944E106B017C0184
:101A000020E030E048EC52E4C301B2010E94CF0E66
:101A10006093F8037093F9038093FA039093FB03A8
:101A200020E030E048EC52E4C501B4010E94CF0E42
:101A30006093F4037093F5038093F6039093F70398
:101A400020E030E048EC52E469857A858B859C85FE
:101A50000E94CF0E6093F0037093F1038093F20322
:101A60009093F30320E030E048EC52E4C701B60164
:101A70000E94CF0E6093EC037093ED038093EE030E
:101A80009093EF0388E992E00E94F0058CE592E0E4
:101A90000E94FC0542E0C301B2010E94FE0588E9F4
:101AA00092E00E94FC0542E0C501B4010E94FE05DF
:101AB00088E992E00E94FC0542E069857A858B8581
:101AC0009C850E94FE0588E992E00E94FC0542E0A8
:101AD000C701B6010E94FE050E94A80588E992E0B0
:101AE0000E94F00560E088E00E94910220E030E072
:101AF000A9016091F8037091F9038091FA03909124
:101B0000FB030E94690E882339F18AE992E00E9462
:101B1000FC056091F8037091F9038091FA039091AC
:101B2000FB0342E00E94FE058EEA92E00E94FC0563
:101B30006091F8037091F9038091FA039091FB038F
:101B400020E030E048EC52E40E94040585EB92E08E
:101B50000E94F0050E940A0720E030E0A901609190
:101B6000F4037091F5038091F6039091F7030E94BE
:101B7000690E882339F18CEB92E00E94FC0560919C
:101B8000F4037091F5038091F6039091F70342E01E
:101B90000E94FE058EEA92E00E94FC056091F4032B
:101BA0007091F5038091F6039091F70320E030E007
:101BB00048EC52E40E946D0485EB92E00E94F0052F
:101BC0000E940A0720E030E0A9016091F0037091C3
:101BD000F1038091F2039091F3030E94690E882330
:101BE00039F183ED92E00E94FC056091F003709161
:101BF000F1038091F2039091F30342E00E94FE050D
:101C00008EEA92E00E94FC056091F0037091F1036E
:101C10008091F2039091F30320E030E048EC52E42D
:101C20000E94D60385EB92E00E94F0050E940A070D
:101C300020E030E0A9016091EC037091ED03809108
:101C4000EE039091EF030E94690E882339F189EE2B
:101C500092E00E94FC056091EC037091ED0380918D
:101C6000EE039091EF0342E00E94FE058EEA92E0BF
:101C70000E94FC056091EC037091ED038091EE03EE
:101C80009091EF0320E030E048EC52E40E943F03E3
:101C900085EB92E00E94F0050E940A0788E992E035
:101CA0000E94F0058CEF92E00E94F00565CD8091D6
:101CB000AE049091AF04009711F00C94CD110895EB
:101CC00091110C943C0F803219F089508550C8F75F
:101CD00008950E94AB0E08F481E00895E89409C0CD
:101CE00097FB3EF490958095709561957F4F8F4F4F
:101CF0009F4F9923A9F0F92F96E9BB279395F69565
:101D0000879577956795B795F111F8CFFAF4BB0FE2
:101D100011F460FF1BC06F5F7F4F8F4F9F4F16C046
:101D2000882311F096E911C0772321F09EE8872FD0
:101D3000762F05C0662371F096E8862F70E060E08C
:101D40002AF09A95660F771F881FDAF7880F969505
:101D5000879597F90895990F0008550FAA0BE0E8A9
:101D6000FEEF16161706E807F907C0F0121613065D
:101D7000E407F50798F0621B730B840B950B39F49D
:101D80000A2661F0232B242B252B21F408950A2603
:101D900009F4A140A6958FEF811D811D08950E9431
:101DA000E20E0C94560F0E94480F38F00E944F0F1D
:101DB00020F0952311F00C943F0F0C94450F112443
:101DC0000C948A0F0E94670F70F3959FC1F3950FD3
:101DD00050E0551F629FF001729FBB27F00DB11DAF
:101DE000639FAA27F00DB11DAA1F649F6627B00D3F
:101DF000A11D661F829F2227B00DA11D621F739F28
:101E0000B00DA11D621F839FA00D611D221F749F35
:101E10003327A00D611D231F849F600D211D822F7C
:101E2000762F6A2F11249F5750409AF0F1F08823A3
:101E30004AF0EE0FFF1FBB1F661F771F881F9150D0
:101E40005040A9F79E3F510580F00C943F0F0C9431
:101E50008A0F5F3FE4F3983ED4F3869577956795B4
:101E6000B795F795E7959F5FC1F7FE2B880F911DFA
:101E70009695879597F9089599278827089597F952
:101E80009F6780E870E060E008959FEF80EC089520
:101E900000240A9416161706180609060895002449
:101EA0000A9412161306140605060895092E0394C3
:101EB000000C11F4882352F0BB0F40F4BF2B11F437
:101EC00060FF04C06F5F7F4F8F4F9F4F089557FD96
:101ED0009058440F551F59F05F3F71F04795880F98
:101EE00097FB991F61F09F3F79F08795089512162F
:101EF00013061406551FF2CF4695F1DF08C01616DB
:101F000017061806991FF1CF86957105610508948B
:101F10000895E894BB2766277727CB0197F90895A2
:101F20000E94D20FA59F900DB49F900DA49F800D8D
:101F3000911D112408952F923F924F925F926F92BC
:101F40007F928F929F92AF92BF92CF92DF92EF9249
:101F5000FF920F931F93CF93DF93CDB7DEB7CA1BCA
:101F6000DB0B0FB6F894DEBF0FBECDBF09942A88F5
:101F7000398848885F846E847D848C849B84AA849D
:101F8000B984C884DF80EE80FD800C811B81AA812A
:101F9000B981CE0FD11D0FB6F894DEBF0FBECDBFF5
:101FA000ED010895A29FB001B39FC001A39F700DE2
:101FB000811D1124911DB29F700D811D1124911D51
:101FC00008955058BB27AA270E94F90F0C94560F6A
:101FD0000E94480F38F00E944F0F20F039F49F3FC5
:101FE00019F426F40C94450F0EF4E095E7FB0C94DD
:101FF0003F0FE92F0E94670F58F3BA176207730764
:102000008407950720F079F4A6F50C94890F0EF457
:10201000E0950B2EBA2FA02D0B01B90190010C01F8
:10202000CA01A0011124FF27591B99F0593F50F410
:10203000503E68F11A16F040A22F232F342F442768
:10204000585FF3CF469537952795A795F040539560
:10205000C9F77EF41F16BA0B620B730B840BBAF030
:102060009150A1F0FF0FBB1F661F771F881FC2F79B
:102070000EC0BA0F621F731F841F48F487957795AF
:102080006795B795F7959E3F08F0B0CF9395880F69
:1020900008F09927EE0F9795879508950E94621092
:1020A0000C94560F0E944F0F58F00E94480F40F0BA
:1020B00029F45F3F29F00C943F0F51110C948A0FC3
:1020C0000C94450F0E94670F68F39923B1F35523D1
:1020D00091F3951B550BBB27AA276217730784073B
:1020E00038F09F5F5F4F220F331F441FAA1FA9F3D1
:1020F00035D00E2E3AF0E0E832D091505040E695BF
:10210000001CCAF72BD0FE2F29D0660F771F881F1F
:10211000BB1F261737074807AB07B0E809F0BB0B12
:10212000802DBF01FF2793585F4F3AF09E3F510526
:1021300078F00C943F0F0C948A0F5F3FE4F3983EC5
:10214000D4F3869577956795B795F7959F5FC9F70F
:10215000880F911D9695879597F90895E1E0660F90
:10216000771F881FBB1F621773078407BA0720F009
:10217000621B730B840BBA0BEE1F88F7E095089572
:102180000E946F0F88F09F5798F0B92F9927B75189
:10219000B0F0E1F0660F771F881F991F1AF0BA950B
:1021A000C9F714C0B13091F00E94890FB1E00895D1
:1021B0000C94890F672F782F8827B85F39F0B93FC3
:1021C000CCF3869577956795B395D9F73EF49095BE
:1021D0008095709561957F4F8F4F9F4F08950E9416
:1021E000AB0E08F48FEF08950E94AB0E880B990B8D
:1021F0000895DB018F939F930E94900FBF91AF9141
:10220000A29F800D911DA39F900DB29F900D112450
:102210000895A1E21A2EAA1BBB1BFD010DC0AA1F27
:10222000BB1FEE1FFF1FA217B307E407F50720F03F
:10223000A21BB30BE40BF50B661F771F881F991FBA
:102240001A9469F760957095809590959B01AC0103
:10225000BD01CF010895EE0FFF1F0590F491E02D11
:1022600009940F931F93CF93DF938230910510F45D
:1022700082E090E0E091B604F091B70430E020E015
:10228000B0E0A0E0309799F42115310509F44AC077
:10229000281B390B24303105D8F58A819B816115C3
:1022A000710589F1FB0193838283FE0111C0408196
:1022B00051810281138148175907E0F048175907E7
:1022C00099F4109761F012960C93129713961C9341
:1022D0003296CF01DF91CF911F910F910895009316
:1022E000B6041093B704F4CF2115310551F042170D
:1022F000530738F0A901DB019A01BD01DF01F801A4
:10230000C1CFEF01F9CF9093B7048093B604CDCF3E
:10231000FE01E20FF31F819391932250310939831B
:102320002883D7CF2091B4043091B504232B41F4F6
:1023300020910B0130910C013093B5042093B4042B
:102340002091090130910A012115310541F42DB781
:102350003EB740910D0150910E01241B350BE091C9
:10236000B404F091B504E217F307A0F42E1B3F0B61
:102370002817390778F0AC014E5F5F4F24173507F7
:1023800048F04E0F5F1F5093B5044093B4048193FF
:1023900091939FCFF0E0E0E09CCFCF93DF93009745
:1023A000E9F0FC01329713821282A091B604B09139
:1023B000B704ED0130E020E01097A1F420813181D5
:1023C000820F931F2091B4043091B5042817390768
:1023D00009F061C0F093B504E093B404DF91CF91AC
:1023E0000895EA01CE17DF07E8F54A815B819E0177
:1023F00041155105B1F7E901FB83EA8349915991F0
:10240000C40FD51FEC17FD0761F4808191810296FE
:10241000840F951FE90199838883828193819B832F
:102420008A83F0E0E0E012968D919C9113970097DB
:10243000B9F52D913C911197CD010296820F931F12
:102440002091B4043091B5042817390739F6309734
:1024500051F51092B7041092B604B093B504A0934E
:10246000B404BCCFD383C28340815181840F951FB4
:10247000C817D90761F44E5F5F4F88819981480F73
:10248000591F518340838A819B81938382832115C5
:10249000310509F0B0CFF093B704E093B6049ECFB6
:1024A000FD01DC01C0CF13821282D7CFB0E0A0E0E3
:1024B000ECE5F2E10C949D0F8C01009751F4CB01F7
:1024C0000E9431118C01C801CDB7DEB7E0E10C9458
:1024D000B90FFC01E60FF71F9C0122503109E217EA
:1024E000F30708F49DC0D901CD91DC911197C6176F
:1024F000D70798F0C530D10530F3CE010497861781
:10250000970708F3C61BD70B2297C193D1936D93FE
:102510007C93CF010E94CD11D6CF5B01AC1ABD0ACE
:102520004C018C0E9D1EA091B604B091B704512CA5
:10253000412CF12CE12C109731F58091B40490914D
:10254000B5048815990509F05CC04616570608F0D1
:1025500058C08091090190910A01009741F48DB70C
:102560009EB740910D0150910E01841B950BE81709
:10257000F90708F055C0F093B504E093B404F901ED
:1025800071836083A0CF8D919C91119712966C906E
:10259000129713967C901397A815B90559F56C01FD
:1025A00042E0C40ED11CCA14DB0420F1AC014A196C
:1025B0005B09DA011296159780F06282738251836B
:1025C0004083D9016D937C93E114F10471F0D7013C
:1025D0001396FC93EE93129776CF22968C0F9D1F45
:1025E000F90191838083F301EFCFF093B704E09377
:1025F000B60469CF4816590608F42C017D01D301B1
:102600009ACFCB010E9431117C01009749F0AE01B5
:10261000B8010E941B13C8010E94CD11870153CF3E
:1026200010E000E050CF9111089581548A5108F4D0
:10263000805E855A0895FB01DC0102C001900D9275
:1026400041505040D8F70895FB01DC0101900D92F4
:102650000020E1F7089510E0CDE5D0E004C0FE01D0
:102660000E942B112196CE35D107C9F7F894FFCFE0
:10267000FFFFFFFFFFFFFFFF010000B80480000025
:102680000000002402A800D5007102E201E4003835
:10269000010D0A006E616E00696E66006F7666005D
:1026A000456D70657A616E646F204D697865723A28
:1026B0002000436F6D616E646F733A2043617267EF
:1026C00061722C204D657A636C61722C204C696DAF
:1026D00070696172005265636962693A20004D65F4
:1026E0007A636C61722070696E7475726100496EF4
:1026F0006772657361722063616E746964616420DE
:10270000646520636F6C6F7220726F6A6F20612046
:10271000626F6D6265617228302D323535293A203D
:10272000000A496E6772657361722063616E746935
:1027300064616420646520636F6C6F7220766572DB
:102740006465206120626F6D6265617228302D3290
:102750003535293A20000A496E6772657361722027
:1027600063616E746964616420646520636F6C6F7B
:102770007220617A756C206120626F6D6265617292
:1027800028302D323535293A20000A496E677265A6
:1027900073617220766F6C756D656E20656E206D4D
:1027A000696C696C6974726F733A2000436F6C6F67
:1027B0007265733A2000526F6A6F3A200056657254
:1027C00064653A2000417A756C3A2000566F6C754A
:1027D0006D656E3A2000436F6E7665727469656E42
:1027E000646F20646520524742206120434D594B5D
:1027F0002028302D323535203D3E20302D313030EF
:102800002900434D594B203A2000426F6D626561AB
:102810006E646F204379616E20636F6E20002050DC
:1028200061736F7300204C6973746F00426F6D6247
:1028300065616E646F204D6167656E746120636FC2
:102840006E2000426F6D6265616E646F2059656C29
:102850006C6F7720636F6E2000426F6D6265616EF2
:10286000646F204B657920636F6E2000546F646F36
:1028700073206C6F7320636F6C6F72657320626F6F
:102880006D626561646F73004361726761206C61A2
:102890007320626F6D626173206520696E74656E6E
:1028A00074616C6F206465206E7565766F0043619E
:1028B0007267616E646F2070696E747572612065F5
:1028C0006E206C617320626F6D6261732E2E2E001C
:1028D0002E2E2E4C6973746F00426F6D62617320EF
:1028E000636172676164617300426F6D626173203E
:1028F0007961206361726761646173004C696D7016
:1029000069616E646F20626F6D6261732E2E2E009E
:10291000426F6D626173204C696D70696173210053
:10292000496E677265736120756E20636F6D616EAD
:10293000646F2076C3A16C69646F3A204D657A6339
:102940006C61722C204361726761722C204C696D3E
:06295000706961720000D5
:107E0000112484B714BE81FFF0D085E080938100F7
:107E100082E08093C00088E18093C10086E0809377
:107E2000C20080E18093C4008EE0C9D0259A86E02C
:107E300020E33CEF91E0309385002093840096BBD3
:107E4000B09BFECF1D9AA8958150A9F7CC24DD24C4
:107E500088248394B5E0AB2EA1E19A2EF3E0BF2EE7
:107E6000A2D0813461F49FD0082FAFD0023811F036
:107E7000013811F484E001C083E08DD089C08234E0
:107E800011F484E103C0853419F485E0A6D080C0E4
:107E9000853579F488D0E82EFF2485D0082F10E0AE
:107EA000102F00270E291F29000F111F8ED06801E7
:107EB0006FC0863521F484E090D080E0DECF843638
:107EC00009F040C070D06FD0082F6DD080E0C81688
:107ED00080E7D80618F4F601B7BEE895C0E0D1E017
:107EE00062D089930C17E1F7F0E0CF16F0E7DF06D8
:107EF00018F0F601B7BEE89568D007B600FCFDCFD4
:107F0000A601A0E0B1E02C9130E011968C91119780
:107F100090E0982F8827822B932B1296FA010C0160
:107F200087BEE89511244E5F5F4FF1E0A038BF0790
:107F300051F7F601A7BEE89507B600FCFDCF97BE46
:107F4000E89526C08437B1F42ED02DD0F82E2BD052
:107F50003CD0F601EF2C8F010F5F1F4F84911BD097
:107F6000EA94F801C1F70894C11CD11CFA94CF0C13
:107F7000D11C0EC0853739F428D08EE10CD085E9AC
:107F80000AD08FE07ACF813511F488E018D01DD067
:107F900080E101D065CF982F8091C00085FFFCCF94
:107FA0009093C60008958091C00087FFFCCF809118
:107FB000C00084FD01C0A8958091C6000895E0E648
:107FC000F0E098E1908380830895EDDF803219F02E
:107FD00088E0F5DFFFCF84E1DECF1F93182FE3DFCA
:107FE0001150E9F7F2DF1F91089580E0E8DFEE27F6
:047FF000FF270994CA
:027FFE00040479
:00000001FF
